:10000000FBEF00F00000000000EF00F00000000037
:0A0010000000000000000000F3D71C
:0E001C00030E0D6E0D2EFED700000000120028
:10002A00560E0C6EB50E0D6E0D2EFED70C2EFCD78D
:06003A00000000001200AE
:0E004000C70E0D6E0D2EFED700000000120040
:10004E0050BE02D0839E01D0838E50BC02D0839CC2
:10005E0001D0838C50BA02D0839A01D0838A50B8D3
:10006E0002D0839801D0838849B002D0848401D015
:10007E0084948482CCDF849250B602D0839E01D0C9
:10008E00838E50B402D0839C01D0838C50B202D0A8
:10009E00839A01D0838A50B002D0839801D083888E
:1000AE0049B002D0848401D084948482B0DF8492DB
:0C00BE0049A002D0B3DF01D0BCDF12006B
:0C00CA0049904FC050F0BEDF498012008A
:1000D6000900F5CFE6FF0006FBE10106F9E1120093
:1000E600969296949598959A959C959E84928494CA
:1000F600839E839C839A839895DF94DF93DF838A1C
:100106008388848288DF84928DDF848284DF849270
:1001160089DF848280DF849285DF839884827BDF17
:10012600849280DF848277DF8492839A838E8482AE
:1001360072DF849277DF839E838884826CDF849269
:100146008398848268DF84926DDF848264DF849280
:100156008388848260DF849265DF839884825BDF94
:100166008492838E838C838A8388848254DF8492EC
:0601760059DF4980120070
:10017C000FD0800E4A6E19D0C00E4A6E16D0940E57
:10018C004A6E13D0D40E4A6E10D0800E4A6E0DD02B
:10019C004A50010AEEE04A50020AEEE04A50030AC5
:1001AC00EEE04A50040AEEE0F0D74B04006E4A50E1
:1001BC00002600C04AF000C050F043DF49904E6A60
:1001CC004E504C24E96E000E4D20EA6EEE520BE0C0
:1001DC004E504C24E96E000E4D20EA6EEECF4FF0DF
:0A01EC006EDF4E2AEDD749801200A5
:1001F60047EC01F0938093820F0EC16E71DF010E02
:10020600506E22DF81B009D0010E4A6E020E4B6E8F
:10021600290E4C6E000E4D6EAEDF81B209D0010E76
:100226004A6E020E4B6E150E4C6E000E4D6EA3DF1F
:1002360081A00ED081A20CD0010E506E05DF010EFA
:100246004A6E020E4B6E3B0E4C6E000E4D6E93DFE9
:04025600D9D7FFD71E
:10028E0010EE15F0340E006E010E016E5A0EF66E63
:0E029E00020EF76E000EF86E6BEC00F0120010
:10025A00436861766520646F6973206163696F6EB4
:04026A00616461006A
:10026E00436861766520756D206163696F6E6164A8
:02027E0061001D
:0E0280004E656E68756D61206368617665007D
:020000040030CA
:0E000000000C1F1EFF8381FF0FC00FE00F409A
:00000001FF
