:10000000FBEF00F00000000000EF00F00000000037
:0A0010000000000000000000F3D71C
:0E001C00030E0D6E0D2EFED700000000120028
:10002A00560E0C6EB50E0D6E0D2EFED70C2EFCD78D
:06003A00000000001200AE
:0E004000C70E0D6E0D2EFED700000000120040
:10004E0025BE02D0839E01D0838E25BC02D0839C18
:10005E0001D0838C25BA02D0839A01D0838A25B829
:10006E0002D0839801D083881EB002D0848401D040
:10007E0084948482CCDF849225B602D0839E01D0F4
:10008E00838E25B402D0839C01D0838C25B202D0FE
:10009E00839A01D0838A25B002D0839801D08388B9
:1000AE001EB002D0848401D084948482B0DF849206
:0C00BE001EA002D0B3DF01D0BCDF120096
:0C00CA001E9024C025F0BEDF1E80120036
:1000D6000900F5CFE6FF0006FBE10106F9E1120093
:1000E600969296949598959A959C959E84928494CA
:1000F600839E839C839A839895DF94DF93DF838A1C
:100106008388848288DF84928DDF848284DF849270
:1001160089DF848280DF849285DF839884827BDF17
:10012600849280DF848277DF8492839A838E8482AE
:1001360072DF849277DF839E838884826CDF849269
:100146008398848268DF84926DDF848264DF849280
:100156008388848260DF849265DF839884825BDF94
:100166008492838E838C838A8388848254DF8492EC
:0601760059DF1E8012009B
:10017C000FD0800E1F6E19D0C00E1F6E16D0940EAD
:10018C001F6E13D0D40E1F6E10D0800E1F6E0DD0AC
:10019C001F50010AEEE01F50020AEEE01F50030A46
:1001AC00EEE01F50040AEEE0F0D72004006E1F5062
:1001BC00002600C01FF000C025F043DF1E90236A0C
:1001CC0023502124E96E000E2220EA6EEE520BE041
:1001DC0023502124E96E000E2220EA6EEECF24F08B
:0A01EC006EDF232AEDD71E801200FB
:1001F6006F0E156E690E166E176A6D0E186E750EF9
:10020600196E6E0E1A6E640E1B6E6F0E1C6E1D6AD4
:100216000F0EC16E65DF010E256E16DF010E1F6E15
:10022600020E206E150E216E000E226EA4DF020E47
:100236001F6E020E206E180E216E000E226E9BDFC0
:04024600EDD7FFD71A
:020000040030CA
:0E000000000C1F1EFF8381FF0FC00FE00F409A
:00000001FF
