:0400000014EF00F009
:10000800F294480ED76EE50ED66E174A182A1100DC
:100018000900F5CFE6FF0006FBE10106F9E1120051
:10002800156A166A176A186A956A480ED76EE50E39
:10003800D66E860ED56EF294F28EF28AD08EF18448
:1000480032D03F0E156E000E166E69D0060E156E74
:10005800000E166E64D05B0E156E000E166E5FD025
:100068004F0E156E000E166E5AD0660E156E000EE7
:10007800166E55D06D0E156E000E166E50D07D0E94
:10008800156E000E166E4BD0070E156E000E166E0E
:1000980046D07F0E156E000E166E41D06F0E156E8F
:1000A800000E166E3CD0000E181802E1000E17184C
:1000B800C8E0000E181802E1010E1718C7E0000E7C
:1000C800181802E1020E1718C6E0000E181802E10F
:1000D800030E1718C5E0000E181802E1040E1718D1
:1000E800C4E0000E181802E1050E1718C3E0000E50
:1000F800181802E1060E1718C2E0000E181802E1DF
:10010800070E1718C1E0000E181802E1080E17189C
:10011800C0E0000E181802E1090E1718BFE015C05C
:1001280083FF000E181802E10A0E171802E1176A79
:06013800186A86D7FFD70C
:020000040030CA
:0E000000000C1F1EFF8381FF0FC00FE00F409A
:00000001FF
