:0400000014EF00F009
:10000800E50ED66E480ED76EF294174A182A1100DC
:100018000900F5CFE6FF0006FBE10106F9E1120051
:10002800156A166A176A186A956A480ED76EE50E39
:10003800D66E860ED56EF294F28EF28AD08EF18448
:10004800D08E30D07E0E156E000E166E67D0300E34
:10005800156E000E166E62D0120E156E000E166E1C
:100068005DD0060E156E000E166E58D04C0E156E2D
:10007800000E166E53D0240E156E000E166E4ED05E
:10008800200E156E000E166E49D00F0E156E000E5E
:10009800166E44D0156A166A41D0040E156E000E0D
:1000A800166E3CD0000E181802E1000E1718CAE0B0
:1000B800000E181802E1010E1718C9E0000E1818F2
:1000C80002E1020E1718C8E0000E181802E1030E2C
:1000D8001718C7E0000E181802E1040E1718C6E03A
:1000E800000E181802E1050E1718C5E0000E1818C2
:1000F80002E1060E1718C4E0000E181802E1070EF8
:100108001718C3E0000E181802E1080E1718C2E00D
:10011800000E181802E1090E1718BFE015C083FF7A
:0401280090D7FFD796
:020000040030CA
:0E000000000C1F1EFF8381FF0FC00FE00F409A
:00000001FF
